:020000040C00EE
:100000000008002001020008B7020008C70200082B
:10001000D7020008E7020008F7020008000000000D
:1000200000000000000000000000000007030008BE
:10003000170300080000000027030008370300082A
:100040004703000857030008670300087703000808
:100050008703000897030008A7030008B7030008F8
:10006000C7030008000000000000000000000000BE
:10007000D703000800000000E7030008F7030008AA
:1000800007040008170400082704000837040008C4
:1000900047040008570400086704000877040008B4
:1000A0008704000897040008A7040008B7040008A4
:1000B000C7040008D7040008E7040008F704000894
:1000C0000705000817050008270500083705000880
:1000D0004705000857050008670500087705000870
:1000E0008705000897050008A7050008B705000860
:1000F000C7050008D7050008E7050008F705000850
:100100000706000815060008230600083106000847
:100110003F0600084D0600085B0600086906000857
:10012000770600088506000893060008A106000867
:10013000AF060008BD060008CB060008D906000877
:10014000E7060008F5060008030700081107000885
:100150001F0700082D0700083B0700084907000893
:10016000000000000000000000000000000000008F
:100170005707000865070008730700088107000893
:100180008F0700089D070008AB070008B9070008A3
:10019000C7070008D5070008E3070008F1070008B3
:1001A000FF0700080D0800081B08000829080008C0
:1001B00037080008450800085308000861080008CF
:1001C0006F0800087D0800088B08000899080008DF
:1001D000A7080008B5080008C308000800000000D0
:1001E000D1080008DF080008ED080008FB08000837
:1001F00009090008000000001709000800000000BD
:10020000DFF80CD0034880470348804700F006B869
:1002100000080020E10A0008053D000819481A49B5
:100220001A4A002A00F00D804FEA920203680B6020
:10023000013A00F0068000F1040001F10401FFF72B
:10024000F5BF13481349002900F00C804FEA9101D3
:100250004FF000020260013900F0048000F1040058
:10026000FFF7F8BF0C480D4908600D4880470D485E
:100270008047DFF834D04FF000004FF00001DFF886
:100280002CF00000804C000C600C002008000000E6
:1002900000080020600400000000000808ED00E0F5
:1002A0007D0B0008914B000800080020351D000858
:1002B00000BF7047FEE7DFF8700600B581B08047E9
:1002C00001B000BDFEE7DFF8640600B581B08047ED
:1002D00001B000BDFEE7DFF8580600B581B08047E9
:1002E00001B000BDFEE7DFF84C0600B581B08047E5
:1002F00001B000BDFEE7DFF8400600B581B08047E1
:1003000001B000BDFEE7DFF8340600B581B08047DC
:1003100001B000BDFEE7DFF8280600B581B08047D8
:1003200001B000BDFEE7DFF81C0600B581B08047D4
:1003300001B000BDFEE7DFF8100600B581B08047D0
:1003400001B000BDFEE7DFF8040600B581B08047CC
:1003500001B000BDFEE7DFF8F80500B581B08047C9
:1003600001B000BDFEE7DFF8EC0500B581B08047C5
:1003700001B000BDFEE7DFF8E00500B581B08047C1
:1003800001B000BDFEE7DFF8D40500B581B08047BD
:1003900001B000BDFEE7DFF8C80500B581B08047B9
:1003A00001B000BDFEE7DFF8BC0500B581B08047B5
:1003B00001B000BDFEE7DFF8B00500B581B08047B1
:1003C00001B000BDFEE7DFF8A40500B581B08047AD
:1003D00001B000BDFEE7DFF8980500B581B08047A9
:1003E00001B000BDFEE7DFF88C0500B581B08047A5
:1003F00001B000BDFEE7DFF8800500B581B08047A1
:1004000001B000BDFEE7DFF8740500B581B080479C
:1004100001B000BDFEE7DFF8680500B581B0804798
:1004200001B000BDFEE7DFF85C0500B581B0804794
:1004300001B000BDFEE7DFF8500500B581B0804790
:1004400001B000BDFEE7DFF8440500B581B080478C
:1004500001B000BDFEE7DFF8380500B581B0804788
:1004600001B000BDFEE7DFF82C0500B581B0804784
:1004700001B000BDFEE7DFF8200500B581B0804780
:1004800001B000BDFEE7DFF8140500B581B080477C
:1004900001B000BDFEE7DFF8080500B581B0804778
:1004A00001B000BDFEE7DFF8FC0400B581B0804775
:1004B00001B000BDFEE7DFF8F00400B581B0804771
:1004C00001B000BDFEE7DFF8E40400B581B080476D
:1004D00001B000BDFEE7DFF8D80400B581B0804769
:1004E00001B000BDFEE7DFF8CC0400B581B0804765
:1004F00001B000BDFEE7DFF8C00400B581B0804761
:1005000001B000BDFEE7DFF8B40400B581B080475C
:1005100001B000BDFEE7DFF8A80400B581B0804758
:1005200001B000BDFEE7DFF89C0400B581B0804754
:1005300001B000BDFEE7DFF8900400B581B0804750
:1005400001B000BDFEE7DFF8840400B581B080474C
:1005500001B000BDFEE7DFF8780400B581B0804748
:1005600001B000BDFEE7DFF86C0400B581B0804744
:1005700001B000BDFEE7DFF8600400B581B0804740
:1005800001B000BDFEE7DFF8540400B581B080473C
:1005900001B000BDFEE7DFF8480400B581B0804738
:1005A00001B000BDFEE7DFF83C0400B581B0804734
:1005B00001B000BDFEE7DFF8300400B581B0804730
:1005C00001B000BDFEE7DFF8240400B581B080472C
:1005D00001B000BDFEE7DFF8180400B581B0804728
:1005E00001B000BDFEE7DFF80C0400B581B0804724
:1005F00001B000BDFEE7DFF8000400B581B0804720
:1006000001B000BDFEE7FD4800B581B0804701B0F4
:1006100000BDFEE7FA4800B581B0804701B000BDDB
:10062000FEE7F84800B581B0804701B000BDFEE7A5
:10063000F54800B581B0804701B000BDFEE7F34842
:1006400000B581B0804701B000BDFEE7F04800B5BD
:1006500081B0804701B000BDFEE7EE4800B581B033
:10066000804701B000BDFEE7EB4800B581B0804790
:1006700001B000BDFEE7E94800B581B0804701B098
:1006800000BDFEE7E64800B581B0804701B000BD7F
:10069000FEE7E44800B581B0804701B000BDFEE749
:1006A000E14800B581B0804701B000BDFEE7DF48FA
:1006B00000B581B0804701B000BDFEE7DC4800B561
:1006C00081B0804701B000BDFEE7DA4800B581B0D7
:1006D000804701B000BDFEE7D74800B581B0804734
:1006E00001B000BDFEE7D54800B581B0804701B03C
:1006F00000BDFEE7D24800B581B0804701B000BD23
:10070000FEE7D04800B581B0804701B000BDFEE7EC
:10071000CD4800B581B0804701B000BDFEE7CB48B1
:1007200000B581B0804701B000BDFEE7C84800B504
:1007300081B0804701B000BDFEE7C64800B581B07A
:10074000804701B000BDFEE7C34800B581B08047D7
:1007500001B000BDFEE7C14800B581B0804701B0DF
:1007600000BDFEE7BE4800B581B0804701B000BDC6
:10077000FEE7BC4800B581B0804701B000BDFEE790
:10078000B94800B581B0804701B000BDFEE7B74869
:1007900000B581B0804701B000BDFEE7B44800B5A8
:1007A00081B0804701B000BDFEE7B24800B581B01E
:1007B000804701B000BDFEE7AF4800B581B080477B
:1007C00001B000BDFEE7AD4800B581B0804701B083
:1007D00000BDFEE7AA4800B581B0804701B000BD6A
:1007E000FEE7A84800B581B0804701B000BDFEE734
:1007F000A54800B581B0804701B000BDFEE7A34821
:1008000000B581B0804701B000BDFEE7A04800B54B
:1008100081B0804701B000BDFEE79E4800B581B0C1
:10082000804701B000BDFEE79B4800B581B080471E
:1008300001B000BDFEE7994800B581B0804701B026
:1008400000BDFEE7964800B581B0804701B000BD0D
:10085000FEE7944800B581B0804701B000BDFEE7D7
:10086000914800B581B0804701B000BDFEE78F48D8
:1008700000B581B0804701B000BDFEE78C4800B5EF
:1008800081B0804701B000BDFEE78A4800B581B065
:10089000804701B000BDFEE7874800B581B08047C2
:1008A00001B000BDFEE7854800B581B0804701B0CA
:1008B00000BDFEE7824800B581B0804701B000BDB1
:1008C000FEE7804800B581B0804701B000BDFEE77B
:1008D0007D4800B581B0804701B000BDFEE77B4890
:1008E00000B581B0804701B000BDFEE7784800B593
:1008F00081B0804701B000BDFEE7764800B581B009
:10090000804701B000BDFEE7734800B581B0804765
:1009100001B000BDFEE7714800B581B0804701B06D
:1009200000BD4FF001007047B5020008C502000885
:10093000D5020008E5020008F502000805030008DA
:100940001503000825030008D132000845030008FC
:1009500055030008650300087503000885030008B7
:1009600095030008A5030008B5030008C5030008A7
:10097000D5030008E5030008F50300080504000896
:100980001504000825040008350400084504000883
:100990005504000865040008750400088504000873
:1009A00095040008A5040008B5040008C504000863
:1009B000D5040008E5040008F50400080505000852
:1009C000150500082505000835050008450500083F
:1009D000550500086505000875050008850500082F
:1009E00095050008A5050008B5050008C50500081F
:1009F000D5050008E5050008F5050008050600080E
:100A000013060008210600082F0600083D0600080E
:100A10004B0600085906000867060008750600081E
:100A200083060008910600089F060008AD0600082E
:100A3000BB060008C9060008D7060008E50600083E
:100A4000F3060008010700080F0700081D0700084B
:100A50002B0700083907000847070008550700085A
:100A600063070008710700087F0700088D0700086A
:100A70009B070008A9070008B7070008C50700087A
:100A8000D3070008E1070008EF070008FD0700088A
:100A90000B08000819080008270800083508000896
:100AA00043080008510800085F0800086D080008A6
:100AB0007B0800088908000897080008A5080008B6
:100AC000B3080008C1080008CF080008DD080008C6
:100AD000EB080008F90800080709000815090008D4
:100AE00080B582B000AF4FF46D43CEF200034FF4F7
:100AF0006D42CEF20002D2F8882042F47002C3F8B0
:100B000088204FF46D43CEF200034FF46D42CEF2D5
:100B10000002526922F008025A614FF40043C5F204
:100B200000034FF40042C5F20002526822F00102B5
:100B30005A604FF48053C5F6000303F5805303F168
:100B400014031B687B607B6823F00F037B607B686A
:100B500043F003037B604FF48053C5F600037A68CB
:100B600003F5805303F114031A6000F0ABF800F0B2
:100B700005F807F10807BD4680BD00BF80B485B009
:100B800000AF4FF48C43C5F20003DB68B3F5803F40
:100B900040F0898044F21073C5F200031B6803F033
:100BA0000403002B00F0888044F21073C5F20003A8
:100BB0009B6803F070634FEA136303F10103FB606A
:100BC00044F21073C5F200039B6803F4FE434FEA3E
:100BD000132303F10103BB6044F21073C5F2000359
:100BE0009B6803F4FE034FEA134303F101037B60A8
:100BF00044F21073C5F20003DB6803F00103002B1D
:100C000028D04FF45853C0F26E13FA68B3FBF2F3D6
:100C1000BA6802FB03F33B603A687B68B2FBF3F20D
:100C200040F66043C2F200031A6040F66043C2F22D
:100C300000031A684FF48C43C5F20003DB68DBB293
:100C400003F10103B2FBF3F240F66043C2F200038A
:100C50001A6031E04FF4D853C0F2B703FA68B3FB1F
:100C6000F2F3BA6802FB03F33B603A687B68B2FBBD
:100C7000F3F240F66043C2F200031A6040F66043AC
:100C8000C2F200031A684FF48C43C5F20003DB681C
:100C9000DBB203F10103B2FBF3F240F66043C2F2B0
:100CA00000031A6008E040F66043C2F200034FF40C
:100CB0005852C0F26E121A6007F11407BD4680BC8C
:100CC000704700BF80B582B000AF03F067FB0346FA
:100CD000002B00F0558244F21073C5F200035A68ED
:100CE0004FF00203C0F201031340002B0DD044F279
:100CF0001073C5F2000344F21072C5F2000252688C
:100D000022F4803222F002025A604FF48E43C5F280
:100D100000035B6803F03003002B72D04FF48E4366
:100D2000C5F200034FF48E42C5F20002526822F071
:100D3000F0025A604FF48E43C5F200034FF48E4226
:100D4000C5F20002526842F400325A6044F2107355
:100D5000C5F2000344F21072C5F20002D26822F01C
:100D60000102DA6044F21073C5F2000344F210721B
:100D7000C5F20002526822F400325A604EF21003AB
:100D8000CEF2000344F6A332C0F24C025A604EF297
:100D90001003CEF200034FF000029A604EF21003EF
:100DA000CEF200034FF005021A6044F21073C5F250
:100DB00000031B6803F46073B3F5607F08D04EF244
:100DC0001003CEF200039A6840F2F3139A42ECD873
:100DD0004EF21003CEF200034EF21002CEF20002E9
:100DE000126822F001021A6044F21073C5F2000387
:100DF0001B6803F46073B3F5607F02D04FF000030B
:100E0000C0E144F21073C5F200031B6803F0040351
:100E1000002B40F0B5814FF48C43C5F20003DB6832
:100E200003F48033002B0BD04FF48C43C5F2000346
:100E30004FF48C42C5F20002D26822F48032DA60AC
:100E40004FF46053C1F69C437B607A6849F6817326
:100E5000C1F25E63A3FB02134FEA535303F1FF3366
:100E60003B6044F21073C5F2000344F21072C5F205
:100E70000002526842F001025A6044F21073C5F257
:100E8000000344F21072C5F20002526842F01002F0
:100E90005A6044F21072C5F200023B684FEA034107
:100EA00044F60173C0F200130B43936044F21073D5
:100EB000C5F2000344F21072C5F20002526842F01B
:100EC00040025A6044F21073C5F2000344F21072FB
:100ED000C5F20002526822F010025A6044F2107308
:100EE000C5F2000344F21072C5F20002526842F4E7
:100EF00080225A604EF21003CEF2000344F6A33271
:100F0000C0F24C025A604EF21003CEF200034FF0D2
:100F100000029A604EF21003CEF200034FF0050279
:100F20001A6000BF44F21073C5F200031B6803F09F
:100F30000403002B08D14EF21003CEF200039A688E
:100F400040F2F3139A42EDD84EF21003CEF20003B2
:100F50004EF21002CEF20002126822F001021A6074
:100F600044F21073C5F200031B6803F00403002B66
:100F70004ED044F21073C5F2000344F21072C5F271
:100F80000002526822F001025A604FF48C43C5F20D
:100F900000034FF000021A614FF48C43C5F20003C6
:100FA0004FF000025A614FF48C43C5F200034FF03A
:100FB00000021A624FF48C43C5F200034FF48C42D6
:100FC000C5F20002D26842F48032DA6044F2107353
:100FD000C5F2000344F21072C5F20002526822F01A
:100FE00040025A604EF21003CEF2000340F2455226
:100FF0005A604EF21003CEF200034FF000029A60E6
:101000004EF21003CEF200034FF005021A6002E028
:101010004FF00003B6E04EF21003CEF200039B68DF
:10102000632BF8D84EF21003CEF200034EF21002FA
:10103000CEF20002126822F001021A604FF46053EF
:10104000C1F69C437B607B684FEA132245F2C7439D
:10105000C0F21E13A3FB02134FEA932303F1FF33E5
:101060003B6044F21072C5F200023B684FEA034154
:1010700044F60173C0F200130B4393604EF2100369
:10108000CEF2000340F61B425A604EF21003CEF23D
:1010900000034FF000029A604EF21003CEF20003FC
:1010A0004FF005021A6000BF4EF21003CEF20003AB
:1010B0009B68632BF8D84EF21003CEF200034EF279
:1010C0001002CEF20002126822F001021A604FF400
:1010D0006053C1F69C437B607B684FEAD3124EF2AB
:1010E0002F33C0F2BE03A3FB02134FEAD32303F155
:1010F000FF333B6044F21072C5F200023B684FEAD6
:10110000034144F60173C0F200130B4393604EF2A7
:101110001003CEF2000341F223325A604EF2100364
:10112000CEF200034FF000029A604EF21003CEF2AE
:1011300000034FF005021A6000BF4EF21003CEF21A
:1011400000039B68632BF8D84EF21003CEF2000325
:101150004EF21002CEF20002126822F001021A6072
:1011600044F21073C5F2000344F60172C0F2031298
:101170009A6044F26013C5F200034FF00502DA6092
:101180004FF00103184607F10807BD4680BD00BFB8
:1011900080B483B000AF78600B467B80B7F9023033
:1011A000002B09DA7B88C3F100039BB27B807B684C
:1011B0004FF02D021A7003E07B684FF020021A7086
:1011C0007B6803F101037B60B7F9022048F21F53EB
:1011D000C5F2EB1383FB02134FEA63114FEAE2738C
:1011E000CB1A9BB2DBB203F13003DAB27B681A7020
:1011F000B7F9023048F21F52C5F2EB1282FB03121C
:101200004FEA62114FEAE3728A1A4FF0640101FB60
:1012100002F29B1A7B807B6803F101037B60B7F9C4
:10122000022046F26763C6F2666383FB02134FEA4D
:10123000A3014FEAE273CB1A9BB2DBB203F1300396
:10124000DAB27B681A70B7F9022046F26763C6F219
:10125000666383FB02134FEAA3014FEAE273C91AE4
:101260000B464FEA83035B184FEA4303D31A7B8094
:101270007B6803F101037B607B88DBB203F1300301
:10128000DAB27B681A7007F10C07BD4680BC704764
:1012900080B584B000AF78607B68FB6000BF44F627
:1012A0003840C0F60000F9684FF0010201F0D4FCAC
:1012B0000346002BF3D007F11007BD4680BD00BFE9
:1012C00080B483B000AF4FF00E037B6003E07B6817
:1012D00003F1FF337B607B68002BF8D107F10C072B
:1012E000BD4680BC704700BF80B400AF44F6744375
:1012F000C0F600035B685A6A44F67443C0F6000304
:101300005B7822FA03F303F0010240F60403C2F211
:1013100000031A6040F60403C2F200031B6818467B
:10132000BD4680BC704700BF80B500AF44F6744333
:10133000C0F600035A6844F67443C0F600035B78B5
:101340004FF0010101FA03F3536044F66C43C0F619
:1013500000035A6844F66C43C0F600035B784FF014
:10136000010101FA03F35360FFF7AAFFFFF7A8FF9B
:10137000FFF7BAFF0346002B02D14FF000032DE028
:1013800044F67443C0F600035A6844F67443C0F64A
:1013900000035B784FF4803101FA03F35360FFF7E9
:1013A0008FFFFFF7A1FF0346002B02D04FF0000391
:1013B00014E044F67443C0F600035A6844F67443DC
:1013C000C0F600035B784FF4803101FA03F35360F9
:1013D000FFF776FFFFF774FF4FF00103184680BD5B
:1013E00080B500AF44F66C43C0F600035A6844F67B
:1013F0006C43C0F600035B784FF4803101FA03F3CD
:101400005360FFF75DFF44F67443C0F600035A686B
:1014100044F67443C0F600035B784FF4803101FA60
:1014200003F35360FFF74CFF44F66C43C0F6000330
:101430005A6844F66C43C0F600035B784FF0010134
:1014400001FA03F35360FFF73BFF44F67443C0F621
:1014500000035A6844F67443C0F600035B784FF00B
:10146000010101FA03F35360FFF72AFF80BD00BFBB
:1014700080B500AF44F66C43C0F600035A6844F6EA
:101480006C43C0F600035B784FF4803101FA03F33C
:101490005360FFF715FF44F67443C0F600035A6823
:1014A00044F67443C0F600035B784FF4803101FAD0
:1014B00003F35360FFF704FF44F66C43C0F60003E8
:1014C0005A6844F66C43C0F600035B784FF00101A4
:1014D00001FA03F35360FFF7F3FE44F66C43C0F6E2
:1014E00000035A6844F66C43C0F600035B784FF47F
:1014F000803101FA03F35360FFF7E2FE80BD00BFC5
:1015000080B500AF44F66C43C0F600035A6844F659
:101510006C43C0F600035B784FF4803101FA03F3AB
:101520005360FFF7CDFE44F67443C0F600035A68DB
:1015300044F67443C0F600035B784FF0010101FAF2
:1015400003F35360FFF7BCFE44F66C43C0F60003A0
:101550005A6844F66C43C0F600035B784FF0010113
:1015600001FA03F35360FFF7ABFE44F66C43C0F699
:1015700000035A6844F66C43C0F600035B784FF4EE
:10158000803101FA03F35360FFF79AFE80BD00BF7C
:1015900080B500AF44F66C43C0F600035A6844F6C9
:1015A0006C43C0F600035B784FF4803101FA03F31B
:1015B0005360FFF785FE44F67443C0F600035A6893
:1015C00044F67443C0F600035B784FF0010101FA62
:1015D00003F35360FFF774FE44F66C43C0F6000358
:1015E0005A6844F66C43C0F600035B784FF0010183
:1015F00001FA03F35360FFF763FEFFF761FEFFF7A5
:101600005FFEFFF75DFEFFF76FFE0346002B1DD068
:1016100044F66C43C0F600035A6844F66C43C0F6C7
:1016200000035B784FF4803101FA03F35360FFF756
:1016300047FE40F60403C2F200031A6840F60803AE
:10164000C2F200031A604FF0000312E044F66C434C
:10165000C0F600035A6844F66C43C0F600035B789A
:101660004FF4803101FA03F35360FFF729FE4FF086
:101670000103184680BD00BF80B584B000AF0346AB
:10168000FB714FF00803FB734AE044F66C43C0F66D
:1016900000035A6844F66C43C0F600035B784FF4CD
:1016A000803101FA03F35360FFF70AFEFB795BB266
:1016B000002B0FDA44F67443C0F600035A6844F670
:1016C0007443C0F600035B784FF0010101FA03F3A5
:1016D00053600EE044F67443C0F600035A6844F6C3
:1016E0007443C0F600035B784FF4803101FA03F3D2
:1016F0005360FB794FEA4303FB71FFF7E1FD44F6CA
:101700006C43C0F600035A6844F66C43C0F600030D
:101710005B784FF0010101FA03F35360FFF7D0FD4E
:10172000FB7B002B0CBF00230123DBB2FA7B02F111
:10173000FF32FA73002BA8D144F66C43C0F60003C5
:101740005A6844F66C43C0F600035B784FF480316E
:1017500001FA03F3536007F11007BD4680BD00BFD7
:1017600080B582B000AF4FF00803FB714FF000036B
:10177000BB7144F67443C0F600035A6844F67443E0
:10178000C0F600035B784FF0010101FA03F35360E8
:101790002EE0BB794FEA4303BB7144F66C43C0F6BD
:1017A00000035A6844F66C43C0F600035B784FF4BC
:1017B000803101FA03F35360FFF782FD44F66C4376
:1017C000C0F600035A6844F66C43C0F600035B7829
:1017D0004FF0010101FA03F35360FFF771FDFFF7CA
:1017E00083FD0346002B03D0BB7943F00103BB719B
:1017F000FB79002B0CBF00230123DBB2FA7902F145
:10180000FF32FA71002BC4D144F66C43C0F60003DA
:101810005A6844F66C43C0F600035B784FF480319D
:1018200001FA03F35360BB79184607F10807BD4678
:1018300080BD00BF80B584B000AF3B600346FB7144
:101840000B46BB7113467B71FFF76EFD0346002B01
:1018500002D14FF0000337E0FB794FEA4303DBB2DC
:101860001846FFF709FFFFF793FE0346002B04D14C
:10187000FFF7B6FD4FF0000326E0BB791846FFF7EF
:10188000FBFEFFF785FE4FF00003FB6014E0FB68F2
:101890003A68D3181B781846FFF7EEFEFFF778FE7C
:1018A0000346002B04D1FFF79BFD4FF000030BE034
:1018B000FB6803F10103FB607A79FB689A42E6DC7E
:1018C000FFF78EFD4FF00103184607F11007BD46E4
:1018D00080BD00BF80B582B000AF13460246FA71EA
:1018E0000A46BA717B71FFF71FFD0346002B02D138
:1018F0004FF000031FE0FB791846FFF7BDFEFFF72E
:1019000047FE0346002B04D1FFF76AFD4FF00003AA
:1019100011E0BB791846FFF7AFFEFFF739FE7B7980
:101920001846FFF7A9FEFFF733FEFFF759FD00F059
:10193000EDFA4FF00103184607F10807BD4680BDD8
:1019400080B584B000AF02460B46FA71BB71FFF759
:10195000EBFC0346002B02D14FF000032EE0FB7995
:101960001846FFF789FEFFF713FE0346002B0BD145
:10197000FFF736FD40F60003C2F200034FF001020C
:101980001A704FF0000319E0BB791846FFF774FE98
:10199000FFF7FEFDFFF7C8FCFB7903F10103DBB2A3
:1019A0001846FFF769FEFFF7F3FDFFF7D9FE034680
:1019B000FB73FFF7A5FDFFF713FDFB7B184607F14F
:1019C0001007BD4680BD00BF80B500AF4FF0D0000E
:1019D0004FF06B014FF00002FFF77CFF4FF0D0009B
:1019E0004FF019014FF00702FFF774FF4FF0D000DE
:1019F0004FF01A014FF00602FFF76CFF4FF0D000D6
:101A00004FF01B014FF01802FFF764FF4FF0D000BA
:101A10004FF01C014FF00102FFF75CFF80BD00BFDB
:101A200080B500AF4FF0D0004FF04401FFF788FFC2
:101A300003461A4640F64803C2F200031A704FF0FC
:101A4000D0004FF04301FFF77BFF03461A4640F6F4
:101A50004803C2F200035A7040F64803C2F2000382
:101A60005B784FEA03239AB240F64803C2F20003C0
:101A70001B7813439AB240F65403C2F200031A8053
:101A800040F65403C2F200031B881BB2184602F052
:101A9000DFFD02460B461046194657A3D3E9002343
:101AA00002F066FF02460B461046194603F048F85E
:101AB00003469AB240F65403C2F200031A804FF074
:101AC000D0004FF04601FFF73BFF03461A4640F6B1
:101AD0004803C2F200039A704FF0D0004FF0450166
:101AE000FFF72EFF03461A4640F64803C2F20003F2
:101AF000DA7040F64803C2F20003DB784FEA0323B2
:101B00009AB240F64803C2F200039B7813439AB29C
:101B100040F65603C2F200031A8040F65603C2F2A2
:101B200000031B881BB2184602F092FD02460B46CA
:101B30001046194630A3D3E9002302F019FF0246EC
:101B40000B461046194602F0FBFF03469AB240F6D8
:101B50005603C2F200031A804FF0D0004FF0480144
:101B6000FFF7EEFE03461A4640F64803C2F20003B2
:101B70001A714FF0D0004FF04701FFF7E1FE034626
:101B80001A4640F64803C2F200035A7140F6480371
:101B9000C2F200035B794FEA03239AB240F648038E
:101BA000C2F200031B7913439AB240F65203C2F209
:101BB00000031A8040F65203C2F200031B881BB2D6
:101BC000184602F045FD02460B46104619460AA388
:101BD000D3E9002302F0CCFE02460B46104619461C
:101BE00002F0AEFF03469AB240F65203C2F200037F
:101BF0001A8080BDAFF30080666666666666304018
:101C000080B584B000AF0346FB7107F107031846A7
:101C1000FFF73EFB4FF03A03FB7307F10F03184643
:101C2000FFF736FB4FF00003FB730EE0FB7B1A4619
:101C300040F64403C2F20003D3181846FFF728FB0E
:101C4000FB7B03F10103DBB2FB73FB7B032BEDD9C1
:101C50004FF02003FB7307F10F031846FFF718FB43
:101C600007F10F031846FFF713FB07F11007BD46F6
:101C700080BD00BF80B582B000AF3B600346FB7102
:101C80000B46BB7113467B71FFF74EFB4FF0000311
:101C9000184607F10807BD4680BD00BF80B582B079
:101CA00000AF3B600346FB710B46BB7113467B7173
:101CB000F979BA797B79084611461A463B68FFF7ED
:101CC000B9FD0346002B02D04FF0010301E04FF0B5
:101CD00000035BB2184607F10807BD4680BD00BF90
:101CE00080B582B000AF3B600346FB710B46BB7111
:101CF00013467B71F979BA797B79084611461A4601
:101D00003B68FFF7B7FF0346002B02D04FF00103FB
:101D100001E04FF000035BB2184607F10807BD462B
:101D200080BD00BF80B400AF4FF000031846BD4631
:101D300080BC704780B582B000AF44F66C40C0F6FE
:101D400000004FF0180101F0E3FE44F67440C0F6C5
:101D500000004FF0180101F0DBFE44F63443C0F6FA
:101D6000000307F104021B88138001F0B7FF4FF056
:101D70000A004FF0010141F68D62C0F600024FF0FB
:101D8000000301F005FB024640F65C03C2F20003CB
:101D90001A604FF001004FF0010141F6E162C0F618
:101DA00000024FF0000301F0F3FA024640F6400350
:101DB000C2F200031A6040F61003C2F200034FF0B3
:101DC0000A021A6040F64003C2F200031B6818467C
:101DD00001F0AEFB00BF40F61003C2F200031B6827
:101DE000002BF8D140F64003C2F200031B681846EE
:101DF00001F0F8FBFFF7E8FDFFF712FE40F6540391
:101E0000C2F200031B881BB240F64400C2F200007D
:101E10001946FFF7BDF94FF05800FFF7F1FE40F605
:101E20005603C2F200031B881BB240F64400C2F204
:101E300000001946FFF7ACF94FF05900FFF7E0FE3C
:101E400040F65203C2F200031B881BB240F6440066
:101E5000C2F200001946FFF79BF94FF05A00FFF756
:101E6000CFFE40F65803C2F200031B881BB240F6B7
:101E70004400C2F200001946FFF78AF94FF05400FF
:101E8000FFF7BEFE00F042F8B6E700BF80B483B0B3
:101E900000AF786040F61403C2F200031B6803F140
:101EA000010240F61403C2F200031A6040F6140364
:101EB000C2F200031B68012B0DD140F61403C2F2DD
:101EC00000034FF000021A6040F61803C2F200034C
:101ED0004FF001021A7007F10C07BD4680BC704735
:101EE00080B483B000AF786040F61003C2F2000304
:101EF0001B6803F1FF3240F61003C2F200031A60C0
:101F000007F10C07BD4680BC704700BF80B500AF2D
:101F100040F61003C2F200034FF005021A6040F6CB
:101F20004003C2F200031B68184601F001FB00BF2A
:101F300040F61003C2F200031B68002BF8D140F6F4
:101F40004003C2F200031B68184601F04BFB80BD42
:101F500080B485B000AFF860B9607A604FF0FF33AD
:101F6000184607F11407BD4680BC704780B485B0A1
:101F700000AFF860B9607A604FF0FF33184607F1A0
:101F80001407BD4680BC704780B485B000AFF860D0
:101F9000B9607A604FF00003184607F11407BD4698
:101FA00080BC704780B485B000AFF860B9607A60DB
:101FB0004FF0FF33184607F11407BD4680BC704749
:101FC00080B400AF4FF0FF331846BD4680BC704769
:101FD00080B483B000AF786039603B68002B02D0DA
:101FE0004FF0FF3301E06FF00103184607F10C07D3
:101FF000BD4680BC704700BF80B483B000AF78603E
:1020000039607A683B689A4202D14FF0FF3301E0B1
:102010006FF00103184607F10C07BD4680BC7047FE
:1020200080B483B000AF78604FF0FF33184607F1FB
:102030000C07BD4680BC704780B487B000AF7860A5
:102040004FF29833C0F200037B6140F62003C2F2E6
:1020500000031B68002B14D140F62003C2F20003DA
:1020600040F66842C2F200021A6040F62003C2F253
:1020700000031A687B69D21840F62403C2F20003F9
:102080001A6040F62003C2F200031B683B6140F671
:102090002003C2F200031B681A467B68D31803F1C1
:1020A000070323F00703FB6040F62403C2F200039A
:1020B0001B68FA689A4202D34FF0000306E040F62C
:1020C0002003C2F20003FA681A603B69184607F160
:1020D0001C07BD4680BC704780B483B000AF7860F9
:1020E0004FF0FF33184607F10C07BD4680BC704720
:1020F00080B483B000AF78604FF0FF33184607F12B
:102100000C07BD4680BC704780B483B000AF7860D8
:1021100039604FF0FF33184607F10C07BD4680BC0D
:10212000704700BF80B400AF4FF0FF331846BD4684
:1021300080BC704780B400AF4FF0FF331846BD46F7
:1021400080BC704780B483B000AF7860FEE700BF0A
:1021500080B400AFBD4680BC704700BF80B483B080
:1021600000AF78604FF0FF33184607F10C07BD460B
:1021700080BC704780B485B000AF78607B681B6816
:10218000FB60FB681B6C23F00202FB681A64FB68AF
:10219000DB6843F00302FB68DA60FB681B6943F409
:1021A0000042FB681A61FB681A697B681B8D4FEA65
:1021B00083534FEA93531A43FB681A61FB685A69C9
:1021C0007B6893F830304FEA032303F440717B6857
:1021D0009B8D4FEA832303F4F84319437B685B8D9F
:1021E0004FEA03404FF00003C0F2FF3303400B43BC
:1021F0001A43FB685A61FB685B6B43F48172FB68AE
:102200005A63FB685A6B7B689B8B4FEA034303F46A
:102210007C117B689B8B4FEA036303F070630B4375
:102220001A43FB685A63FB689B6B43F4A062FB682C
:102230009A63FB68DA6B7B685B7D4FEA430303F0CC
:1022400002017B68DB8D4FEA032303F4F8530B4351
:10225000134343F00102FB68DA637B6893F8243090
:10226000002B05D0FB68DB6B43F02002FB68DA63D0
:102270007B6893F82530002B05D0FB68DB6B43F0BF
:102280004002FB68DA637B6893F82630002B05D0A8
:10229000FB68DB6B43F08002FB68DA637B689B7F43
:1022A000002B0ED0FB68D3F808217B6893F8203010
:1022B0004FEA032303F47C531A43FB68C3F8082155
:1022C00005E0FB689B6C43F40052FB689A647B68F2
:1022D000DB7F002B0FD0FB68D3F80C217B6893F8D1
:1022E00021304FEA032303F47C53134343F080521D
:1022F000FB68C3F80C21FB681A6C7B689B7D4FEA76
:10230000032303F44073134343F00202FB681A648F
:1023100007F11407BD4680BC704700BF80B485B08C
:1023200000AF78607B685B687A68526851687A6849
:10233000127A4FF0010000FA02F20A435A607B68F9
:102340001B7AFB60FB68032B10D87B685B687A689C
:1023500052681169FA684FEAC20202F103024FF0B3
:10236000180000FA02F20A431A614FE0FB68032BDF
:1023700017D9FB68072B14D8FB68A3F10403FB6093
:102380007B685B687A6852685169FA684FEAC202F2
:1023900002F103024FF0180000FA02F20A435A61F8
:1023A00034E0FB68072B17D9FB680B2B14D8FB68AC
:1023B000A3F10803FB607B685B687A6852689169E7
:1023C000FA684FEAC20202F103024FF0180000FA65
:1023D00002F20A439A6119E0FB680B2B16D9FB68DD
:1023E0000F2B13D8FB68A3F10C03FB607B685B68C1
:1023F0007A685268D169FA684FEAC20202F10302B0
:102400004FF0180000FA02F20A43DA6107F11407EC
:10241000BD4680BC704700BF80B485B000AF786017
:10242000D7ED017AF5EEC07AF1EE10FA06D5D7EDC8
:10243000017AF1EE677AC7ED037A01E07B68FB6011
:10244000FB68184607F11407BD4680BC704700BF03
:1024500080B52DED028BAEB000AFF860B9607A6048
:102460004FF00003C7F8B4304FF00003C7F8B030A6
:10247000FB68C7F8AC304FF00003C7F8A8304FF046
:102480000003C7F888304FF00003FB6742F6C653DD
:10249000C7F8A830D7ED2B7AB8EE677AD7ED2A7A4D
:1024A000F8EE677AC7EE277AC7ED1E7A97ED1E7AA7
:1024B000F7EE007AB4EEE77AF1EE10FA12DD4FF49F
:1024C0008063C7F8A4304FF0010387F88330D7F852
:1024D000AC30FB67D7F8A830C7F8AC30FB6FC7F853
:1024E000A83007E04FF0000387F883304FF4806393
:1024F000C7F8A4304FF00003C7F884304FF0000352
:10250000C7F890304FF00003C7F88C30D7F8AC30E4
:102510003B66D7F8A8303B644FF001033B634FF0B4
:1025200000033B62D7F8843003F10103C7F884301D
:10253000D7F88C307B67D7F89030C7F88C30D7F855
:10254000843003F00303C7F89030D7F88C304FEA9B
:10255000830307F1B801CB1853F8582CD7F8903003
:102560004FEA830307F1B801CB1843F8682CD7F87A
:102570008C304FEA830307F1B802D31853F8782C54
:10258000D7F890304FEA830307F1B801CB1843F82E
:10259000582CD7F890304FEA830307F1B802D318CC
:1025A00053F8682CD7F890304FEA830307F1B8014D
:1025B000CB1853F8583CB2FBF3F2D7F890304FEAFF
:1025C000830307F1B801CB1843F8A82CD7F8903053
:1025D0004FEA830307F1B802D31853F8682CD7F8F1
:1025E00090304FEA830307F1B801CB1853F8583CF9
:1025F000B2FBF3F103FB01F3D21AD7F890304FEAA4
:10260000830307F1B801CB1843F8782CD7F884304E
:10261000012B05D17B697B634FF001037B624BE0AB
:10262000D7F890304FEA830307F1B802D31853F874
:10263000A82CD7F88C304FEA830307F1B801CB18E8
:1026400053F8883C03FB02F27B6F4FEA830307F1E8
:10265000B801CB1853F8883CD218D7F890304FEA1D
:10266000830307F1B801CB1843F8882CD7F89030D2
:102670004FEA830307F1B802D31853F8A82CD7F810
:102680008C304FEA830307F1B801CB1853F8983C1C
:1026900003FB02F27B6F4FEA830307F1B801CB180B
:1026A00053F8983CD218D7F890304FEA830307F1DB
:1026B000B801CB1843F8982CD7F890304FEA830331
:1026C00007F1B802D31853F8982CD7F8A4309A42DF
:1026D00040F2DF80D7F88C304FEA830307F1B8016E
:1026E000CB1853F8883CC7F8A030D7F88C304FEAA5
:1026F000830307F1B802D31853F8983CC7F8983011
:102700007B6F4FEA830307F1B801CB1853F8983C6D
:10271000D7F8A420D21AD7F88C304FEA830307F1F8
:10272000B801CB1853F8983CB2FBF3F33B67D7F8EA
:10273000903003F1FF334FEA830307F1B802D31857
:1027400053F8883C3A6F02FB03F2D7F89030A3F1BC
:1027500002034FEA830307F1B801CB1853F8883C12
:10276000D318C7F89C30D7F8903003F1FF334FEA05
:10277000830307F1B802D31853F8983C3A6F02FB71
:1027800003F27B6F4FEA830307F1B801CB1853F8CC
:10279000983CD318C7F8943097F88330002B13D0A7
:1027A000D7F8A030FB67D7F89830C7F8A030FB6F98
:1027B000C7F89830D7F89C30FB67D7F89430C7F843
:1027C0009C30FB6FC7F89430D7F89830002B03D0BB
:1027D000D7F8A030002B08D1D7F89C30C7F8B43018
:1027E000D7F89430C7F8B0304EE0D7F89430002BCB
:1027F00003D0D7F89C30002B08D1D7F8A030C7F809
:10280000B430D7F89830C7F8B0303DE0D7ED287A2B
:10281000B8EE677AD7ED267AF8EE677AC7EE277AB0
:1028200097ED1E7A77EE677A17EE900AFFF7F4FDC0
:1028300008EE100AD7ED277AB8EE677AD7ED257A39
:10284000F8EE677AC7EE277A97ED1E7A77EE677A09
:1028500017EE900AFFF7E0FD07EE900AB4EEE78A64
:10286000F1EE10FA08DDD7F89C30C7F8B430D7F88D
:102870009430C7F8B03007E0D7F8A030C7F8B430CC
:10288000D7F89830C7F8B0304FF00503C7F8883054
:1028900032E0D7F890304FEA830307F1B802D3183B
:1028A00053F8783C002B27D1D7F890304FEA8303B8
:1028B00007F1B801CB1853F8883CC7F8B430D7F803
:1028C00090304FEA830307F1B802D31853F8983CCD
:1028D000C7F8B03097F88330002B09D0D7F8B43060
:1028E000FB67D7F8B030C7F8B430FB6FC7F8B0302B
:1028F0004FF00503C7F88830D7F88830052B7FF4F0
:1029000011AED7F8B42040F2FF339A4203D940F217
:10291000FF33C7F8B4307B68D7F8B4201A60D7F813
:10292000B03003F1FF32BB681A6007F1B807BD464B
:10293000BDEC028B80BD00BF80B582B000AF4FF40C
:10294000006000F02FFF4FF000037B6021E040F6B5
:102950006443C2F200037A6853F822301B7D012BD6
:1029600009D140F66443C2F200037A6853F822307A
:102970001846FFF7D3FC40F66443C2F200037A68BE
:1029800053F822301846FFF7F5FB7B6803F101038B
:102990007B607B68002BDAD007F10807BD4680BD5D
:1029A00080B483B000AF786007F10C07BD4680BCEF
:1029B000704700BF80B58AB000AFF860B960FA71A7
:1029C000BB714FF000037B614FF000033B61FB687C
:1029D0001B683B624FF005037B623B6A9B6C03F014
:1029E0000103FB613B6A9B6C03F002034FEA530354
:1029F000BB61FA69BB691340012B5BD13B6A1B6C5D
:102A000023F002023B6A1A6407F1140207F1100373
:102A1000B86811461A46FFF71BFD3B6A1B6923F491
:102A20007F7323F003033A6A13613B6A1A693B69B7
:102A30004FEA83534FEA93531A433B6A1A613B6A46
:102A40005B6923F07F7323F440333A6A53613B6A36
:102A50005A697B694FEA03414FF00003C0F2FF332C
:102A60000B401A433B6A5A613B6ADB6B23F002025C
:102A70003B6ADA633B6ADA6BBB794FEA430303F0E4
:102A800002031A433B6ADA633B6A1B6C23F440720D
:102A90003B6A1A643B6A1A6CFB794FEA032303F41E
:102AA0004073134343F002023B6A1A644FF0000381
:102AB0007B6202E04FF003037B627B6A184607F1FA
:102AC0002807BD4680BD00BF80B487B000AFF86066
:102AD000B9607A604FF000037B61FB681B683B6163
:102AE000FB68DB7F002B1FD011E03B69D3F81C3162
:102AF0009AB2BB681A807B6803F1FF337B607B6905
:102B000003F101037B61BB6803F10203BB603B6916
:102B1000D3F8143103F008034FEAD303002B0CD190
:102B20007B68002BE1D108E03B695B6D9AB2BB6822
:102B30001A807B6903F101037B617B69184607F109
:102B40001C07BD4680BC704780B487B000AFF860FA
:102B5000B9607A604FF000037B61FB681B683B61E2
:102B6000FB68DB7F002B1FD011E03B69D3F81C31E1
:102B7000DAB2BB681A707B6803F1FF337B607B6954
:102B800003F101037B61BB6803F10103BB603B6997
:102B9000D3F8143103F008034FEAD303002B0CD110
:102BA0007B68002BE1D108E03B695B6DDAB2BB6862
:102BB0001A707B6903F101037B617B69184607F199
:102BC0001C07BD4680BC704780B487B000AFF8607A
:102BD000B9607A604FF000037B61FB681B683B6162
:102BE000FB689B7F002B1FD011E0BB681B881A4637
:102BF0003B69C3F880217B6803F1FF337B607B690D
:102C000003F101037B61BB6803F10203BB603B6915
:102C1000D3F8143103F480534FEA1333002B13D14C
:102C20007B68002BE1D10FE03B699B6B03F08003D5
:102C3000002B09D1BB681B881A463B69C3F880206A
:102C40007B6903F101037B617B69184607F11C076F
:102C5000BD4680BC704700BF80B487B000AFF8604D
:102C6000B9607A604FF000037B61FB681B683B61D1
:102C7000FB689B7F002B1FD011E0BB681B781A46B6
:102C80003B69C3F880217B6803F1FF337B607B697C
:102C900003F101037B61BB6803F10103BB603B6986
:102CA000D3F8143103F480534FEA1333002B13D1BC
:102CB0007B68002BE1D10FE03B699B6B03F0800345
:102CC000002B09D1BB681B781A463B69C3F88020EA
:102CD0007B6903F101037B617B69184607F11C07DF
:102CE000BD4680BC704700BF80B487B000AF78603D
:102CF0000B46FB704FF001037B614FF000033B611B
:102D00007B681B68FB60FB780F2B0BD8FB689B6C08
:102D10003B61FB784FF0010202FA03F33A6913407A
:102D20003B611FE0FB78122B0ED8FB68D3F81431FF
:102D30003B61FB78A3F110034FF0010202FA03F3A9
:102D40003A6913403B610DE0FB68D3F814313B61F5
:102D5000FB78A3F10B034FF0010202FA03F33A6987
:102D600013403B613B69002B02D04FF002037B61B3
:102D70007B69184607F11C07BD4680BC704700BF41
:102D800080B485B000AF78600B46FB707B681B6831
:102D9000FB60FB780F2B0AD8FB68DA6CFB784FF0EE
:102DA000010101FA03F31A43FB68DA641FE0FB78C0
:102DB000122B0ED8FB68D3F81821FB78A3F110036F
:102DC0004FF0010101FA03F31A43FB68C3F818211D
:102DD0000DE0FB68D3F81821FB78A3F10B034FF04B
:102DE000010101FA03F31A43FB68C3F8182107F144
:102DF0001407BD4680BC704780B400AF4FF46D43EC
:102E0000CEF20003DB6803F4E0634FEA13231846B5
:102E1000BD4680BC704700BF80B483B000AF03469E
:102E20003960FB7197F90730002B10DA4FF46D43CE
:102E3000CEF20003FA7902F00F02A2F104013A681F
:102E4000D2B24FEA8202D2B25B181A760DE04FF48A
:102E50006143CEF2000397F907103A68D2B24FEA05
:102E60008202D2B25B1883F8002307F10C07BD463B
:102E700080BC704780B489B000AFF860B9607A60F8
:102E8000FB6803F00703FB61FB69C3F10703062B33
:102E900028BF0623BB61FB6903F10603062B03D998
:102EA000FB6903F1FF3301E04FF000037B61BB6975
:102EB0004FF0010202FA03F303F1FF331A46BB6835
:102EC0001A407B6902FA03F27B694FF0010101FAB3
:102ED00003F303F1FF3319467B680B401343184695
:102EE00007F12407BD4680BC704700BF80B582B0A3
:102EF00000AF78607B6803F1FF326FF07F439A4246
:102F000002D94FF001031DE04EF21003CEF2000390
:102F10007A6802F1FF325A604FF0FF304FF03F0104
:102F2000FFF77AFF4EF21003CEF200034FF00002DB
:102F30009A604EF21003CEF200034FF007021A60BF
:102F40004FF00003184607F10807BD4680BD00BFDB
:102F500080B487B000AF786040F66003C2F200032F
:102F60007A684FEA42129B1803F108031B68FB6062
:102F700040F62803C2F200031B68002B0DD17B68CA
:102F80004FEA431240F66003C2F20003D21840F643
:102F90002803C2F200031A60DEE040F62803C2F202
:102FA00000031B687B61FB683B61D1E07B699B6828
:102FB0003A69D31A3B613B69002B80F29C807B69A4
:102FC000DB69002B2ED07B69DA697B684FEA4311FD
:102FD00040F66003C2F20003CB1893617B69DA69A3
:102FE00040F66003C2F2000379684FEA41115B18B2
:102FF00003F11C031A6040F66003C2F200037A6812
:103000004FEA42129B1803F118037A691A607B6831
:103010004FEA431240F66003C2F20003D2187B6904
:10302000DA612AE040F62803C2F200031A6840F68B
:103030006003C2F2000379684FEA41115B1803F1A3
:1030400018031A6040F62803C2F200031A687B686E
:103050004FEA431140F66003C2F20003CB18D3617C
:103060007B684FEA431240F66003C2F20003D218B5
:1030700040F62803C2F200031A6040F66003C2F271
:1030800000037A684FEA42129B1803F118031B6889
:103090009A683B69D21840F66003C2F2000379686F
:1030A0004FEA41115B1803F108031A6040F6600310
:1030B000C2F200037A684FEA42129B1803F1180328
:1030C0001A6840F66003C2F2000379684FEA4111C2
:1030D0005B1803F118031B68996840F66003C2F29D
:1030E000000378684FEA40101B1803F108031B68BF
:1030F000CB1A936030E03B69002B26DB7B699B6930
:10310000002B22D140F66003C2F200037A684FEA36
:1031100042129B1803F11C037A691A607B684FEA1C
:10312000431240F66003C2F20003D2187B699A6131
:103130003A6940F66003C2F2000379684FEA411130
:103140005B1803F108031A6006E07B699B697B61E9
:103150007B69002B7FF42AAF07F11C07BD4680BCBA
:10316000704700BF80B485B000AF78607B684FEADD
:10317000431240F66003C2F20003D318FB60FB6801
:10318000DB69002B0BD1FB689B69002B07D140F654
:103190002803C2F200034FF000021A6049E0FB6806
:1031A000DB69002B1CD1FB689A6940F62803C2F248
:1031B00000031A6040F62803C2F200031B684FF0B8
:1031C0000002DA61FB689B69FA6892699168FA68A3
:1031D00092688A189A60FB684FF000029A6128E0B2
:1031E000FB689B69002B09D1FB68DB694FF000028B
:1031F0009A61FB684FF00002DA611AE0FB68DB6954
:10320000FA6892699A61FB689B69FA68D269DA6127
:10321000FB689B69FA6892699168FA6892688A18F3
:103220009A60FB684FF000029A61FB684FF0000261
:10323000DA6107F11407BD4680BC704780B582B0E3
:1032400000AF40F62803C2F200031B687B6031E048
:103250007B681B79002B0FD17B681B681846FFF732
:1032600081FF7B684FF001025A717B681B697A68A5
:1032700052691046984717E07B681B79012B21D1D2
:103280007B681B681846FFF76DFF7B68DA687B6810
:103290009A607B681B681846FFF75AFE7B681B69BB
:1032A0007A6852691046984740F62803C2F2000334
:1032B0001B687B607B68002B05D07B689B68002BBC
:1032C000C6D000E000BF07F10807BD4680BD00BFC3
:1032D00080B582B000AF40F62803C2F200031B683D
:1032E0007B6040F63003C2F200031B6803F1010269
:1032F00040F63003C2F200031A607B68002B10D046
:103300007B689B68012B06D97B689B6803F1FF32C1
:103310007B689A6005E07B684FF000029A60FFF7D7
:103320008DFF07F10807BD4680BD00BF80B582B0A4
:1033300000AF4FF000037B6040F62803C2F20003A9
:103340004FF000021A6001F011F84DF2C040C0F2D7
:103350000100FFF7CBFD7860FFF74EFD03461846EE
:103360004FF00A014FF00002FFF784FD03464FF0D3
:10337000FF301946FFF750FD40F62C03C2F2000360
:103380004FF000021A6007F10807BD4680BD00BF7C
:1033900080B489B000AFF8607A603B600B46FB7286
:1033A0004FF00003FB614FF00003BB614FF00003DF
:1033B0007B61FB7A002B05D0FB7A012B02D04FF00A
:1033C00001037B61FB68002B02D14FF001037B619D
:1033D000FB68002B02D14FF001037B617B68002B5F
:1033E00002D14FF001037B617B69002B40F0988094
:1033F0004FF00003BB618FE040F62C03C2F20003E4
:103400001A68BB6922FA03F303F00103002B7FD192
:10341000BB694FF0010202FA03F240F62C03C2F23C
:1034200000031B681A4340F62C03C2F200031A6023
:1034300040F66003C2F20003BA694FEA42129B18D9
:10344000BA691A6040F66003C2F20003BA694FEA33
:1034500042129B18FA7A1A7140F66003C2F2000316
:10346000BA694FEA42129B184FF001025A71FB6889
:1034700003F1010240F66003C2F20003B9694FEAAA
:1034800041115B1803F108031A6040F66003C2F2B1
:103490000003BA694FEA42129B1803F10C03FA6861
:1034A0001A6040F66003C2F20003BA694FEA4212A2
:1034B0009B1803F110037A681A6040F66003C2F2A9
:1034C0000003BA694FEA42129B1803F114033A68E9
:1034D0001A6040F66003C2F20003BA694FEA421272
:1034E0009B1803F11C034FF000021A6040F66003C2
:1034F000C2F20003BA694FEA42129B1803F11803A3
:103500004FF000021A60BB6903F10103FB6107E0A1
:10351000BB6903F10103BB61BB691F2B7FF66CAF75
:10352000FB69184607F12407BD4680BC704700BF01
:1035300080B584B000AF78604FF00003FB607B681B
:10354000202B02D94FF00103FB6040F62C03C2F29E
:1035500000031A687B6803F1FF3322FA03F303F0D8
:103560000103002B02D14FF00103FB607B6803F1E4
:10357000FF3240F66003C2F200034FEA42129B188A
:1035800003F108031B68002B02D14FF00103FB601D
:10359000FB68002B1FD17B6803F1FF3240F660030C
:1035A000C2F200034FEA42129B185B79002B12D043
:1035B0007B6803F1FF3240F66003C2F200034FEA7A
:1035C00042129B184FF000025A717B6803F1FF33DF
:1035D0001846FFF7BDFCFB68184607F11007BD460B
:1035E00080BD00BF80B584B000AF78604FF00003AD
:1035F000FB607B68202B02D94FF00103FB6040F693
:103600002C03C2F200031A687B6803F1FF3322FA2D
:1036100003F303F00103002B02D14FF00103FB6021
:10362000FB68002B1FD17B6803F1FF3240F660037B
:10363000C2F200034FEA42129B185B79012B12D0B1
:103640007B6803F1FF331846FFF78CFD7B6803F1BD
:10365000FF3240F66003C2F200034FEA42129B18A9
:103660004FF001025A71FB68184607F11007BD467A
:1036700080BD00BF80B584B000AF78604FF000031C
:10368000FB607B68202B02D94FF00103FB6040F602
:103690002C03C2F200031A687B6803F1FF3322FA9D
:1036A00003F303F00103002B02D14FF00103FB6091
:1036B000FB68002B26D17B6803F1FF3240F66003E4
:1036C000C2F200034FEA42129B185B79002B05D12E
:1036D0007B6803F1FF331846FFF744FD7B6803F175
:1036E000FF334FF0010202FA03F36FEA030240F6E0
:1036F0002C03C2F200031B681A4040F62C03C2F2EE
:1037000000031A60FB68184607F11007BD4680BD2C
:1037100080B400AF40F63003C2F200031B681846C5
:10372000BD4680BC704700BF80B485B000AF7860F4
:103730007A684DF2C043C0F2010303FB02F3FB6061
:10374000FB68184607F11407BD4680BC704700BFF0
:1037500080B487B000AF78604FF000037B614FF01A
:1037600000033B614FF48843C5F20003FB607B68B4
:103770004FEA13737B61FB6803F1100319467A6902
:1037800013464FEA43039B184FEA8303CB183B6170
:103790007B6823F070423B691A6007F11C07BD4645
:1037A00080BC704780B487B000AF78604FF00003F2
:1037B0007B614FF000033B614FF48843C5F2000387
:1037C000FB607B684FEA13737B61FB6803F11403B2
:1037D00019467A6913464FEA43039B184FEA83035D
:1037E000CB183B617B6823F070423B691A6007F19C
:1037F0001C07BD4680BC704780B483B000AF4FF457
:103800008843C5F200037B604FF00003FB707B68C8
:103810001B68FB70FB78184607F10C07BD4680BC9F
:10382000704700BF80B489B000AF78604FF00F03DD
:10383000FB614FF00003BB614FF000037B614FF071
:1038400000033B614FF48843C5F20003FB607B68D3
:103850004FEA1373BB61FB6803F10C031946BA69A5
:1038600013464FEA43039B184FEA8303CB187B614F
:103870007B691A687B68134023F070433B613B69A6
:10388000002B03D04FF00103FB6102E04FF0000377
:10389000FB61FB69184607F12407BD4680BC7047F1
:1038A00080B483B000AF4FF48843C5F200037B605F
:1038B0007B689B6843F001027B689A6007F10C0704
:1038C000BD4680BC704700BF80B400AF44F66C4377
:1038D000C0F600035B684FF000025A6044F66C4388
:1038E000C0F600035A6844F66C43C0F600035B68F8
:1038F0001B6C23F0E063136444F66C43C0F60003D2
:103900005A6844F66C43C0F600035B681B6C136492
:1039100044F66C43C0F600035A6844F66C43C0F6A4
:1039200000035B685B6943F48003536144F67443AE
:10393000C0F600035B684FF000025A6044F674431F
:10394000C0F600035A6844F67443C0F600035B688F
:103950005B6C23F00703536444F67443C0F6000322
:103960005A6844F67443C0F600035B685B6C5364AA
:1039700044F67443C0F600035A6844F67443C0F634
:1039800000035B689B6943F040039361BD4680BCC4
:10399000704700BF80B485B000AF78600B46FB7005
:1039A0007B685B78FB73FB7B032B23D87B685B68AE
:1039B0007A6852681169FA7B4FEAC20202F1030287
:1039C0004FF01F0000FA02F26FEA02020A401A6189
:1039D0007B685B687A6852681169FA7802F01F00A8
:1039E000FA7B4FEAC20202F1030200FA02F20A4332
:1039F0001A6188E0FB7B032B2AD9FB7B072B27D896
:103A0000FB7BA3F10403FB737B685B687A685268F5
:103A10005169FA7B4FEAC20202F103024FF01F0024
:103A200000FA02F26FEA02020A405A617B685B68A0
:103A30007A6852685169FA7802F01F00FA7B4FEAFF
:103A4000C20202F1030200FA02F20A435A615AE08A
:103A5000FB7B072B2AD9FB7B0B2B27D8FB7BA3F106
:103A60000803FB737B685B687A6852689169FA7B2C
:103A70004FEAC20202F103024FF01F0000FA02F205
:103A80006FEA02020A409A617B685B687A68526852
:103A90009169FA7802F01F00FA7B4FEAC20202F144
:103AA000030200FA02F20A439A612CE0FB7B0B2B23
:103AB00029D9FB7B0F2B26D8FB7BA3F10C03FB73CF
:103AC0007B685B687A685268D169FA7B4FEAC20208
:103AD00002F103024FF01F0000FA02F26FEA020245
:103AE0000A40DA617B685B687A685268D169FA7863
:103AF00002F01F00FA7B4FEAC20202F1030200FA51
:103B000002F20A43DA6107F11407BD4680BC704730
:103B100080B485B000AF78600B46FB707B685B7843
:103B2000FB73FB7B032B23D87B685B687A68526846
:103B30001169FA7B4FEAC20202F103024FF01F0043
:103B400000FA02F26FEA02020A401A617B685B68BF
:103B50007A6852681169FA7802F01F00FA7B4FEA1E
:103B6000C20202F1030200FA02F20A431A6188E07B
:103B7000FB7B032B2AD9FB7B072B27D8FB7BA3F1ED
:103B80000403FB737B685B687A6852685169FA7B4F
:103B90004FEAC20202F103024FF01F0000FA02F2E4
:103BA0006FEA02020A405A617B685B687A68526871
:103BB0005169FA7802F01F00FA7B4FEAC20202F163
:103BC000030200FA02F20A435A615AE0FB7B072B18
:103BD0002AD9FB7B0B2B27D8FB7BA3F10803FB73B4
:103BE0007B685B687A6852689169FA7B4FEAC20227
:103BF00002F103024FF01F0000FA02F26FEA020224
:103C00000A409A617B685B687A6852689169FA78C1
:103C100002F01F00FA7B4FEAC20202F1030200FA2F
:103C200002F20A439A612CE0FB7B0B2B29D9FB7B28
:103C30000F2B26D8FB7BA3F10C03FB737B685B681F
:103C40007A685268D169FA7B4FEAC20202F1030234
:103C50004FF01F0000FA02F26FEA02020A40DA6136
:103C60007B685B687A685268D169FA7802F01F0055
:103C7000FA7B4FEAC20202F1030200FA02F20A439F
:103C8000DA6107F11407BD4680BC704780B485B087
:103C900000AF78607B6803F00703FB604FF46D436F
:103CA000CEF20003DB68BB60BA684FF6FF03134037
:103CB000BB60FB684FEA0322BB68134343F0BF635A
:103CC00043F40033BB604FF46D43CEF20003BA6897
:103CD000DA6007F11407BD4680BC704780B500AFBD
:103CE0004FF00100FFF7D2FF00F0BAF8FFF7ECFD4C
:103CF00000F03CFBFEF720FEFFF718FB00F008F891
:103D000080BD00BF80B500AF00F030FB80BD00BFBC
:103D100080B487B000AF3B464FF000021A6003F159
:103D200004034FF000021A6003F104034FF0000295
:103D30001A6003F104034FF000021A6003F1040358
:103D40004FF000021A6003F104034FF000021A6002
:103D500003F104033A684FF00003C4F203031B6C41
:103D600003F00F0313433B604FF00003C4F203035F
:103D70004FF00002C4F20302126C22F00F021A6428
:103D80004FF00003C4F203034FF00002C4F2030239
:103D9000D26922F0070242F00102DA614FF000031B
:103DA000C4F203034FF00002C4F20302D2F8082168
:103DB00022F0E06222F03F0242F04072C3F8082194
:103DC0004FF00003C4F203034FF00002C4F20302F9
:103DD000D2F80C2122F0E06222F03F0242F0807221
:103DE00042F00802C3F80C214FF00003C4F20303B1
:103DF0003A6802F00F014FF00002C4F20302126CA5
:103E000022F00F020A431A644FF40143C4F602037E
:103E10004FF40142C4F60202526922F4384242F4DD
:103E200010425A614FF40143C4F602034FF40142B9
:103E3000C4F60202526942F400025A614FF401438F
:103E4000C4F602034FF40142C4F60202926942F042
:103E500080029A6107F11C07BD4680BC704700BF15
:103E600080B400AFBD4680BC704700BF80B485B051
:103E700000AF78604FF00003FB6007E000BF00BFB9
:103E800000BF00BFFB6803F10103FB60FA687B68B9
:103E90009A42F3D307F11407BD4680BC704700BFB8
:103EA00080B483B000AF4FF001037B6044F2107325
:103EB000C5F200035A684FF00203C0F20103134039
:103EC000002B02D04FF000037B607B68184607F19F
:103ED0000C07BD4680BC704780B500AF4FF48443EB
:103EE000C5F200031B6803F00103002B0BD14FF454
:103EF0008443C5F200034FF48442C5F200025268C5
:103F000042F001025A604FF48843C5F200031B6877
:103F100003F40073002B0BD04FF48843C5F2000369
:103F20004FF48842C5F20002926842F400729A602F
:103F300044F21073C5F2000344F21072C5F200029D
:103F4000526822F480125A604FF06400FFF78EFF2F
:103F500044F21073C5F2000344F21072C5F200027D
:103F6000526842F400225A6080BD00BF80B582B022
:103F700000AF4FF001037B6044F21073C5F2000301
:103F800044F21072C5F20002526822F4803222F02C
:103F900002025A604FF48E43C5F200035B6803F0DF
:103FA0003003002B54D04FF48E43C5F200034FF47E
:103FB0008E42C5F20002526822F030025A604FF47D
:103FC0008E43C5F200034FF48E42C5F200025268E0
:103FD00042F440325A6044F21073C5F2000344F2D6
:103FE0001072C5F20002D26822F00102DA6044F2D7
:103FF0001073C5F2000344F21072C5F20002526859
:1040000022F400325A6044F250633B604FF00A00E1
:10401000FFF72CFF3B6803F1FF333B6044F2107362
:10402000C5F200031B6803F46073B3F5607F02D030
:104030003B68002BEAD144F21073C5F200031B6801
:1040400003F46073B3F5607F02D04FF000037B6030
:104050007B68184607F10807BD4680BD80B582B071
:1040600000AF4FF001037B6044F21073C5F2000310
:104070001B6803F00403002B40F0978040F63403E4
:10408000C2F200034FF46052C1F69C421A6040F63F
:104090003403C2F200031A6849F68173C1F25E6309
:1040A000A3FB02134FEA535303F1FF3240F63803E8
:1040B000C2F200031A6044F21073C5F2000344F226
:1040C0001072C5F20002526842F001025A6044F2D6
:1040D0001073C5F2000344F21072C5F20002526878
:1040E00042F010025A6044F21073C5F2000340F629
:1040F0003802C2F2000212684FEA024242F41C5235
:104100009A6044F21073C5F2000344F21072C5F2D3
:104110000002526842F040025A6044F21073C5F245
:10412000000344F21072C5F20002526822F010023D
:104130005A6044F21073C5F2000344F21072C5F2E3
:104140000002526842F480225A6044F250633B609D
:104150004FF00A00FFF78AFE3B6803F1FF333B6034
:1041600044F21073C5F200031B6803F00403002B34
:1041700002D13B68002BEBD144F21073C5F200036F
:104180001B6803F00403002B0CD044F21073C5F23B
:10419000000344F21072C5F20002526822F00102DC
:1041A0005A6002E04FF000037B607B68184607F11D
:1041B0000807BD4680BD00BF80B582B000AF4FF09C
:1041C00001037B6044F21073C5F2000344F21072E5
:1041D000C5F20002526822F040025A6040F63403F1
:1041E000C2F200034FF46052C1F69C421A604FF0D5
:1041F0006400FFF73BFE40F63403C2F200031B6885
:104200004FEA132245F2C743C0F21E13A3FB021369
:104210004FEA932303F1FF3240F63803C2F2000362
:104220001A6044F21073C5F2000340F63802C2F27D
:10423000000212684FEA024242F41C529A604FF0A8
:104240006400FFF713FE40F63403C2F200031B685C
:104250004FEAD3124EF22F33C0F2BE03A3FB021378
:104260004FEAD32303F1FF3240F63803C2F20003D2
:104270001A6044F21073C5F2000340F63802C2F22D
:10428000000212684FEA024242F41C529A604FF058
:104290009600FFF7EBFD44F21073C5F200034FF4F4
:1042A0001C52C0F203029A6044F21073C5F200037C
:1042B0009B6803F070634FEA1363002B1ED144F236
:1042C0001073C5F200039B6803F4FE434FEA132307
:1042D000272B13D144F21073C5F200039B6803F03F
:1042E0007F03002B0AD144F21073C5F200039B68D0
:1042F00003F4FE034FEA1343032B02D04FF00003F5
:104300007B6044F26013C5F200034FF00502DA60EF
:104310007B68184607F10807BD4680BD80B582B0AE
:1043200000AF4FF001037B60FFF7D6FD4FF0640054
:10433000FFF79CFDFFF71AFE7860FFF78FFE7860AD
:104340004FF48C43C5F200034FF48C42C5F20002D7
:10435000D26842F48032DA60FFF72EFF78607B6823
:10436000184607F10807BD4680BD00BF80B582B082
:1043700000AF4FF000037B60FFF792FD0346002B78
:1043800005D1FFF7CBFF03467A6813437B60FCF748
:10439000F5FB07F10807BD4680BD00BF80B400AF44
:1043A0004FF000031846BD4680BC704781F00041C5
:1043B00002E000BF83F0004330B54FEA41044FEA0A
:1043C000430594EA050F08BF90EA020F1FBF54EAA5
:1043D000000C55EA020C7FEA645C7FEA655C00F041
:1043E000E2804FEA5454D4EB5555B8BF6D420CDD12
:1043F0002C4480EA020281EA030382EA000083EA95
:10440000010180EA020281EA0303362D88BF30BD34
:1044100011F0004F4FEA01314FF4801C4CEA11318A
:1044200002D0404261EB410113F0004F4FEA0333E9
:104430004CEA133302D0524263EB430394EA050F74
:1044400000F0A780A4F10104D5F1200E0DDB02FAE3
:104450000EFC22FA05F2801841F1000103FA0EF277
:10446000801843FA05F359410EE0A5F120050EF13D
:10447000200E012A03FA0EFC28BF4CF0020C43FA6E
:1044800005F3C01851EBE37101F0004507D54FF07B
:10449000000EDCF1000C7EEB00006EEB0101B1F5CB
:1044A000801F1BD3B1F5001F0CD349085FEA300011
:1044B0004FEA3C0C04F101044FEA445212F5800F1C
:1044C00080F09A80BCF1004F08BF5FEA500C50F1B9
:1044D000000041EB045141EA050130BD5FEA4C0C9C
:1044E000404141EB010111F4801FA4F10104E9D125
:1044F00091F0000F04BF01460020B1FA81F308BF1C
:104500002033A3F10B03B3F120020CDA0C3208DDE7
:1045100002F1140CC2F10C0201FA0CF021FA02F1C2
:104520000CE002F11402D8BFC2F1200C01FA02F132
:1045300020FA0CFCDCBF41EA0C019040E41AA2BF57
:1045400001EB0451294330BD6FEA04041F3C1CDA1F
:104550000C340EDC04F11404C4F1200220FA04F03F
:1045600001FA02F340EA030021FA04F345EA0301E9
:1045700030BDC4F10C04C4F1200220FA02F001FAAB
:1045800004F340EA0300294630BD21FA04F029462D
:1045900030BD94F0000F83F4801306BF81F48011C6
:1045A0000134013D4EE77FEA645C18BF7FEA655C39
:1045B00029D094EA050F08BF90EA020F05D054EA0B
:1045C000000C04BF1946104630BD91EA030F1EBF10
:1045D0000021002030BD5FEA545C05D14000494114
:1045E00028BF41F0004130BD14F580043CBF01F507
:1045F000801130BD01F0004545F0FE4141F47001ED
:104600004FF0000030BD7FEA645C1ABF19461046C7
:104610007FEA655C1CBF0B46024650EA013406BFC8
:1046200052EA033591EA030F41F4002130BD00BF87
:1046300090F0000F04BF0021704730B54FF4806444
:1046400004F132044FF000054FF0000150E700BFC5
:1046500090F0000F04BF0021704730B54FF4806424
:1046600004F1320410F0004548BF40424FF0000111
:104670003EE700BF42004FEAE2014FEA31014FEA54
:1046800002701FBF12F07F4393F07F4F81F06051A3
:10469000704792F0000F14BF93F07F4F704730B512
:1046A0004FF4607401F0004521F0004120E700BFA5
:1046B00050EA010208BF704730B54FF000050AE02C
:1046C00050EA010208BF704730B511F0004502D52D
:1046D000404261EB41014FF4806404F132045FEA2F
:1046E000915C3FF4DCAE4FF003025FEADC0C18BFD4
:1046F00003325FEADC0C18BF033202EBDC02C2F1CA
:10470000200300FA03FC20FA02F001FA03FE40EA5B
:104710000E0021FA02F11444C1E600BF70B54FF05B
:10472000FF0C4CF4E06C1CEA11541DBF1CEA13553D
:1047300094EA0C0F95EA0C0F00F0DEF82C4481EAA5
:10474000030621EA4C5123EA4C5350EA013518BFC5
:1047500052EA033541F4801143F4801338D0A0FBB2
:1047600002CE4FF00005E1FB02E506F00042E0FB5F
:1047700003E54FF00006E1FB03569CF0000F18BF65
:104780004EF0010EA4F1FF04B6F5007F64F540740D
:1047900004D25FEA4E0E6D4146EB060642EAC621A0
:1047A00041EA55514FEAC52040EA5E504FEACE2E0D
:1047B000B4F1FD0C88BFBCF5E06F1ED8BEF1004F10
:1047C00008BF5FEA500E50F1000041EB045170BD8C
:1047D00006F0004646EA010140EA020081EA0301D0
:1047E000B4EB5C04C2BFD4EB0C0541EA045170BDCC
:1047F00041F480114FF0000E013C00F3AB8014F146
:10480000360FDEBF002001F0004170BDC4F100048E
:10481000203C35DA0C341BDC04F11404C4F120050F
:1048200000FA05F320FA04F001FA05F240EA02006A
:1048300001F0004221F0004110EBD37021FA04F6A0
:1048400042EB06015EEA430E08BF20EAD37070BD5A
:10485000C4F10C04C4F1200500FA04F320FA05F0B9
:1048600001FA04F240EA020001F0004110EBD370BB
:1048700041F100015EEA430E08BF20EAD37070BD2B
:10488000C4F1200500FA05F24EEA020E20FA04F304
:1048900001FA05F243EA020321FA04F001F00041B3
:1048A00021FA04F220EA020000EBD3705EEA430E24
:1048B00008BF20EAD37070BD94F0000F0FD101F053
:1048C0000046400041EB010111F4801F08BF013C8C
:1048D000F7D041EA060195F0000F18BF704703F0CA
:1048E0000046520043EB030313F4801F08BF013D51
:1048F000F7D043EA0603704794EA0C0F0CEA13550D
:1049000018BF95EA0C0F0CD050EA410618BF52EAC6
:104910004306D1D181EA030101F000414FF00000CC
:1049200070BD50EA410606BF1046194652EA4306DA
:1049300019D094EA0C0F02D150EA013613D195EA4E
:104940000C0F05D152EA03361CBF104619460AD196
:1049500081EA030101F0004141F0FE4141F47001A0
:104960004FF0000070BD41F0FE4141F4780170BD90
:1049700070B54FF0FF0C4CF4E06C1CEA11541DBFF5
:104980001CEA135594EA0C0F95EA0C0F00F0A7F8F7
:10499000A4EB050481EA030E52EA03354FEA013124
:1049A00000F088804FEA03334FF0805545EA131337
:1049B00043EA12634FEA022245EA111545EA1065FF
:1049C0004FEA00260EF000419D4208BF964244F196
:1049D000FD0404F5407402D25B084FEA3202B61AB5
:1049E00065EB03055B084FEA32024FF480104FF489
:1049F000002CB6EB020E75EB030E22BFB61A7546FD
:104A000040EA0C005B084FEA3202B6EB020E75EB8F
:104A1000030E22BFB61A754640EA5C005B084FEAF7
:104A20003202B6EB020E75EB030E22BFB61A7546C4
:104A300040EA9C005B084FEA3202B6EB020E75EBCF
:104A4000030E22BFB61A754640EADC0055EA060E90
:104A500018D04FEA051545EA16754FEA06164FEAD3
:104A6000C30343EA52734FEAC2025FEA1C1CC0D17F
:104A700011F4801F0BD141EA00014FF000004FF00C
:104A8000004CB6E711F4801F04BF01430020B4F1CD
:104A9000FD0C88BFBCF5E06F3FF6AFAEB5EB030C85
:104AA00004BFB6EB020C5FEA500C50F1000041EB82
:104AB000045170BD0EF0004E4EEA113114EB5C044F
:104AC000C2BFD4EB0C0541EA045170BD41F4801122
:104AD0004FF0000E013C90E645EA060E8DE60CEA2A
:104AE000135594EA0C0F08BF95EA0C0F3FF43BAF47
:104AF00094EA0C0F0AD150EA01347FF434AF95EAFE
:104B00000C0F7FF425AF104619462CE795EA0C0FE1
:104B100006D152EA03353FF4FDAE1046194622E7AE
:104B200050EA410618BF52EA43067FF4C5AE50EA88
:104B300041047FF40DAF52EA43057FF4EBAE12E778
:104B40004FEA410212F5001215D211D56FF47873B5
:104B5000B3EB625212D94FEAC12343F0004343EA58
:104B6000505311F0004F23FA02F018BF4042704733
:104B70004FF00000704750EA013005D111F00040BD
:104B800008BF6FF0004070474FF00000704700BF53
:104B9000F8B5204F204C381B871017D07A1E236899
:104BA000012502F001069847AF420FD02EB154F80C
:104BB000041F02258847AF4208D06068804702354D
:104BC000A268261D90470834AF42F6D1134F144C0B
:104BD000FDF7BEFA3B1B9F1018D07D1E216805F023
:104BE000010601258847AF4211D02EB154F8040FB9
:104BF00002258047AF420BD0626890470235A36818
:104C0000261D98470834AF42F6D1F8BDF8BDF8BD6F
:104C1000F8BD00BF244C0008244C0008244C0008B8
:044C2000244C000818
:104C2400DCB5FF7F01000000F0B5FF7F010000004C
:104C34008045000000000340008102480500000098
:104C4400008102480400000000000000004B000046
:104C54000700010100000301000000004203FC0101
:104C6400090006000000000001060000008102485F
:084C7400010800000081024864
:084C8000000E2707384C000864
:0400000508000201EC
:00000001FF
